:1000000069C083C0BDC281C080C07FC07EC07DC0CA
:100010007CC07BC07AC079C078C077C076C01FC270
:1000200023C227C22BC233C232C231C230C22FC256
:100030002EC22DC22CC22BC22AC229C228C2FCC188
:10004000FDC125C200C223C208C221C220C21FC2F4
:100050001EC2FFC1F6C11BC217C219C218C217C205
:10006000E9C1F5C114C213C212C211C2EEC10FC25E
:10007000F2C1520056302E3837002300373300FCCF
:100080007C3C1C0C0484C4E4F46088A8904028D014
:10009000082078B048E0A0F068D85010C030187040
:1000A00098B8C8325694E8CEE2AA4A137AB4B68613
:1000B0006A36528C16548B44AC14583F2E2F212C88
:1000C0003A3B7E245E28292D405F7C3D232B2A2548
:1000D000263C3E0011241FBECFE5D2E0DEBFCDBFDF
:1000E00010E0A0E6B0E0E0EEFFE002C005900D9267
:1000F000A436B107D9F710E0A4E6B0E001C01D9224
:10010000AA37B107E1F72AD269C77ACF482F2091E1
:10011000620030916300C901817090709095819563
:100120009F4F8070947B36952795822793279093D5
:10013000630080936200892F01C0841B8417E8F755
:1001400090E00895EF92FF921F93CF93DF937C018D
:10015000EC0110E0123031F48AE0D8DF805DF70165
:10016000828304C08AE1D2DF8F5B88831F5F219680
:10017000153081F7DF91CF911F91FF90EF90089597
:100180001F93CF93DF93182F8091600090916100AF
:10019000885E9D4F49F481E061E040E050E07FD40B
:1001A0009093610080936000113009F047C0109275
:1001B00061001092600088EE93E090936500809358
:1001C00064008EE4E5D4C8EED3E01AC080E051D3D9
:1001D000182F23D2812F80538A3090F480916000B1
:1001E000909161006AE070E089D6C097810F911DFF
:1001F0009093610080936000D0936500C093640089
:1002000080916400909165000197909365008093C0
:100210006400892BD9F6409160005091610087E21B
:100220004031580748F482E061E039D480916000A1
:10023000909161009AD535C0B5D233C0123089F59E
:100240008091600090916100892B59F180E0A2D1EA
:100250008091640090916500009731F00197909330
:100260006500809364001DC088EC90E09093650069
:100270008093640080916000909161000197909359
:10028000610080936000892B61F481E061E040E0CF
:1002900050E005D4909361008093600082E064E0B8
:1002A000BED4DF91CF911F910895AF92BF92CF92AC
:1002B000DF92EF92FF920F931F93DF93CF9300D0C3
:1002C00000D00F92CDB7DEB76E010894C11CD11CCF
:1002D00066E0A62EB12CAC0EBD1EC60133DFFF2496
:1002E000FF2081F48EE02AD28601F801808150D46B
:1002F00038D281E018D4882371F50F5F1F4F0A159B
:100300001B0599F700ED17E080E0B3D2E82E85D108
:1003100001501040EE2041F401151105E1F080E09C
:1003200002D4882389F302C0012BA9F081E0FBD31A
:10033000882389F4F601EF0DF11D80818E1529F4D3
:10034000F394F4E0FF1560F603C02CD2FF24CACF6B
:1003500082E51ED4C2CF0F900F900F900F900F9098
:10036000CF91DF911F910F91FF90EF90DF90CF9091
:10037000BF90AF9008951F9310E081E0D4D38823FD
:10038000B9F481E0FDD181E0D9D182E0F9D183E0F7
:10039000D5D1E7D1B39902C082E007C0B49B04C0B5
:1003A0001F5F1A3051F704C081E061E008D2E4CF4A
:1003B0001F910895CF93DF93CAE0D0E085E4E8D39E
:1003C00081E0B1D3882379F4B39B02C0219704C0A4
:1003D00082E02AD1CAE0D0E0B49903C081E024D100
:1003E000EBCF209759F7DF91CF9108951F93CF93CB
:1003F000DF9381E090D18FE3CBD3C8EED3E09EC0F2
:1004000080E037D2182F882319F0C8EED3E001C05E
:10041000219703D18FEF7ADE82E044D18823B9F5AA
:10042000812F90E0FC01F197EA32F10580F5E15F60
:10043000FF4F09940DD579C080E001C084E026D13A
:1004400074C088E0FCCF8CE0FACF80E84EC080E139
:100450004CC080E24AC08FDF68C080E446C081E3C0
:1004600097D381E061E00EC082E392D381E062E045
:1004700009C083E38DD381E063E004C084E388D3C3
:1004800081E064E0CCD351C081E07ADE4EC01D34FF
:10049000E9F11E3468F4133429F1143420F41033D4
:1004A00009F041C021C0153411F11934E1F524C01F
:1004B000153591F0163528F4103561F0143599F59D
:1004C00020C0163519F0173571F52AC084E790E081
:1004D0008ED42BC06FDF29C080E01DD19CD481E079
:1004E0001AD123C0E2DE21C082E0E0D01EC080E04D
:1004F00012D182E061E00EC080E00DD182E062E0C6
:1005000009C080E008D182E063E004C080E003D14C
:1005100082E064E084D381E0FED0C8EBDBE00EC073
:1005200078D023D402C0113039F4D9D289E006D171
:1005300082E790E05CD402C0111134D181E0F3D2A3
:10054000882319F4209709F05BCF8AE790E04FD415
:1005500080E0E1D0DF91CF911F91089594D481E0A4
:10056000DAD08CE790E043D480E0D5D081E0DBD2D4
:1005700081113CDF52D082E003DE80E07AD1F6CFF9
:100580001F920F920FB60F9211240F900FBE0F9073
:100590001F901895882309F433C080916F009091C3
:1005A0007000A0917100B09172000196A11DB11D63
:1005B00080936F0090937000A0937100B0937200CD
:1005C0000197A109B10980579741A040B04001F5BA
:1005D00010926F00109270001092710010927200D1
:1005E00085B7877E806185BF85B7846885BF8B7F2F
:1005F00085BF85B7806285BF78948895F894089503
:1006000010926F00109270001092710010927200A0
:1006100008958091780090E0089508B606FEFDCF19
:1006200088B7806488BF0895813031F48091740068
:1006300090917500019707C0823049F48091740051
:10064000909175000196909375008093740080914D
:10065000740090917500889730F488E290E0909350
:1006600075008093740080917400909175008C39AE
:10067000910530F08BE990E09093750080937400C1
:100680008091660084608093660008959091730065
:10069000937F982B90937300809166008460809381
:1006A00066000895909173008923089590917300D6
:1006B0009827909373008091660084608093660011
:1006C0000895982F8230A9F480916600282F84FF26
:1006D00008C08091740089BD88BD8AB582618ABDD9
:1006E00093BF25FF17C08091730086FF10C0C0988C
:1006F0000895813079F48091660084FF02C01ABCAD
:1007000013BE85FF07C08091730086FF02C0C09AA8
:100710000895C098089590916600882329F09F7CE1
:1007200090619093660008958091730080739F7C20
:10073000892B8093660081E0C4DF0895282F3091D3
:1007400076000AC008B606FEFDCF88B7806488BF71
:1007500091509923B9F72150222311F0932FF9CF0B
:100760000895CF93DF9380917900C82FD0E003C024
:1007700081E0E4DF21972097D9F7DF91CF910895A9
:100780001F93182F82E09DDF80E004DF113021F0FD
:10079000123021F483E001C081E0D0DF81E091DFFD
:1007A0001F9108951F9310E081E0EADF81E0C6DF2A
:1007B0001F5F1830C9F783E0C1DF1F9108956130D2
:1007C00091F4813031F480917900882339F181509E
:1007D00007C0823019F5809179008F3FF9F08F5F63
:1007E000809379001BC0813031F48091780082338E
:1007F00058F48F5F07C0823039F4809178008630DA
:1008000018F08150809378006091780080EF90E03C
:1008100070E09AD3709377006093760080916600C1
:1008200084608093660081E0ABDF81E087DF82E057
:10083000A7DF83E083DF95DF0895909173009078C0
:10084000B3990AC020916600992311F481E001C098
:1008500082E0822B80936600B4990AC020916600E2
:10086000992311F482E001C081E0822B809366001D
:1008700008951F9320916C0030916D002115310572
:1008800031F02150304030936D0020936C0088236C
:1008900011F41092680080916E00813009F4CEC08E
:1008A000813020F0823009F0F6C0E4C0C6DF81E07C
:1008B00071DE8091730090E08C70907084309105AF
:1008C00061F0853091051CF4892B39F02DC08830FA
:1008D000910571F00C9741F51EC090916B009095B9
:1008E0008091660089238093660010926B001CC083
:1008F00090916600892F8370833049F4809167005E
:10090000882379F080958923809366000DC09370C9
:100910009093670009C090916600892F837083309F
:1009200019F49E7F9093660080916C0090916D0009
:10093000892B09F04BC040916900442309F43EC063
:1009400080916A00880F816090E027E030E0241BEE
:10095000310902C0880F991F2A95E2F7982F20E0ED
:1009600030E0F901E158FF4FE491E91769F42A30CA
:1009700010F4205D0FC0243210F4295C0BC02956FE
:100980003F4FF901249106C02F5F3F4F2C333105B3
:1009900041F720E01092690010926A008091760081
:1009A00090917700880F991F880F991F90936D0081
:1009B00080936C0081E0809368006EC08091680035
:1009C000882321F01092680020E266C01091660032
:1009D000412F50E0CA0183709070892B09F45BC0ED
:1009E00010926800809169008F5F80936900209168
:1009F0006A00220F20936A00809176009091770020
:100A000010FF08C090936D0080936C0081E080938C
:100A10006B000DC063E070E071D290936D00809325
:100A20006C0082E080936B00216020936A0082E07A
:100A300048DE1C7F1093660081E019C080E0AADDCB
:100A4000809173008C70843009F4F7DE80916C0023
:100A500090916D00892BF9F481E033DE809176006E
:100A60009091770090936D0080936C0082E080936A
:100A70006E0011C0E2DE80916C0090916D00892BB8
:100A800051F410926E0080917600909177009093CF
:100A90006D0080936C0020E0822F1F9108958130BB
:100AA00069F4613021F486E090E079D205C06230CB
:100AB00091F488E090E073D29C010FC0823059F429
:100AC000613019F486E090E004C0623021F488E0DF
:100AD00090E0BA0180D220E030E0C9010895809111
:100AE000660082FF1FC080E090E065EA66D26091F8
:100AF00074007091750082E090E06DD284E090E027
:100B0000609178005AD281E090E06091730055D2F4
:100B100085E090E06091790050D2809166008B7FF3
:100B20008093660008950F931F93082F109166001D
:100B3000B2991BC0186081E0EEDD84ED90E301976F
:100B4000F1F70CC0B39904C082E060E038DE177F93
:100B5000B49904C081E060E032DE177FB29BF2CF2F
:100B600084ED90E30197F1F7BADF1093660001304E
:100B700021F4812F877F80936600812F90E043E0EE
:100B8000969587954A95E1F781701F910F91089589
:100B90001F93282F80538A3010F010E805C0E22FF1
:100BA000F0E0E15BFF4F1491822F81568A3128F4E7
:100BB000E22FF0E0E85DFF4F1491822F81548A31DB
:100BC00028F4E22FF0E0E85BFF4F149180E090E022
:100BD000FC01E554FF4FE4912E1721F4FC01ED5583
:100BE000FF4F149101968831910591F7203281F4DD
:100BF00084E0A4DD12C080E096DF882371F417FF43
:100C000002C082E001C081E0BBDD81E097DD110F11
:100C1000103889F782E092DDA4DD1F910895CF920C
:100C2000DF92EF92FF920F931F93DF93CF93CDB795
:100C3000DEB7C456D0400FB6F894DEBF0FBECDBFAE
:100C4000062F813009F04EC068EEE62E63E0F62EE6
:100C500010E06E010894C11CD11C81E064DF882380
:100C600009F073C081E005DE882321F40894E108CF
:100C7000F10809C0F601E10FF11D80831F5F58EEF6
:100C8000E52E53E0F52E143610F08CDD10E008B69A
:100C900006FEFDCF88B7806488BFE114F104E9F651
:100CA0001123F1F01150CE010196FC01E10FF11D6D
:100CB0001082013019F46AE070E004C0023031F4AF
:100CC0006EE670E044E650E06FD13FC0033019F4A7
:100CD00062ED70E0F7CF0430C1F566E371E0F2CF6A
:100CE00061DD33C0823089F5613029F4CE0101968F
:100CF0006AE070E014C0623029F4CE0101966EE61D
:100D000070E00DC0633029F4CE01019662ED70E011
:100D100006C0643039F4CE01019666E371E044E622
:100D200050E025D110E07E010894E11CF11C07C0C1
:100D300080E0F9DE882349F4802F2ADF1F5FF70166
:100D4000E10FF11D0081002399F7CC59DF4F0FB659
:100D5000F894DEBF0FBECDBFCF91DF911F910F91F1
:100D6000FF90EF90DF90CF900895EF92FF921F9346
:100D7000DF93CF9300D000D00F92CDB7DEB79C01A8
:100D800010E07E010894E11CF11C0FC0F701E10F97
:100D9000F11DC9016AE070E0C3D0805D80831F5FF0
:100DA000C9016AE070E0BCD09B012115310571F7E3
:100DB0000BC081E0B8DE882369F41150F701E10F20
:100DC000F11D8081E5DE04C07E010894E11CF11C68
:100DD000112379F780E2DCDE0F900F900F900F90D7
:100DE0000F90CF91DF911F91FF90EF9008951F9387
:100DF000CF93DF93EC0102C0812FCADEFE01219662
:100E00001491112321F081E08EDE8823A9F3DF9174
:100E1000CF911F910895CF93DF9382E052DCC0EA17
:100E2000DFE009C0219708B606FEFDCF88B78064D1
:100E300088BF209741F0B39B06C0B49B04C081E0FB
:100E400072DE882379F381E03CDCDF91CF91089555
:100E50008DE490E090937500809374008FE0809310
:100E6000780080E190E09093770080937600109274
:100E7000790084E38093730080916600846080939E
:100E800066002DDE0895B89AB99AC39AC49AC29A98
:100E900080E090E07CD0853A01F582E090E07FD060
:100EA000909375008093740084E090E070D0682F78
:100EB0008093780080EF90E070E046D070937700E8
:100EC0006093760085E090E062D08093790081E0C5
:100ED00090E05DD08093730001C0BADF80E01BDC3E
:100EE00085B38C6185BB8BB780628BBF8EE48DBD73
:100EF00080B7876880BF81E08EBD089555270024A4
:100F000080FF02C0060E571F660F771F611571051F
:100F100021F096958795009799F7952F802D089544
:100F2000AA1BBB1B51E107C0AA1FBB1FA617B7070F
:100F300010F0A61BB70B881F991F5A95A9F780952B
:100F40009095BC01CD01089597FB092E07260AD084
:100F500077FD04D0E5DF06D000201AF47095619586
:100F60007F4F0895F6F7909581959F4F0895DC0186
:100F7000CB01FC01E199FECF06C0FFBBEEBBE09ABE
:100F800031960DB20D9241505040B8F70895E19955
:100F9000FECF9FBB8EBBE09A99278DB30895A8E141
:100FA000B0E042E050E0E5CFDC01CB0102C02D9182
:100FB00005D041505040D8F70895262FE199FECF33
:100FC0001CBA9FBB8EBB2DBB0FB6F894E29AE19A78
:100FD0000FBE01960895F1DF272FF0CFF894FFCFD1
:040FE000E8FDE1AC9B
:00000001FF
